:1000000048400020A95F0000A55F0000A55F000038
:1000100000000000000000000000000000000000E0
:10002000000000000000000000000000A55F0000CC
:100030000000000000000000A55F0000A55F0000B8
:10004000A55F0000A55F0000093A0000ED31000047
:10005000A55F0000A55F0000A55F0000A55F000090
:10006000C1470000D1470000E1470000F147000010
:100070000148000011480000A55F0000A55F0000D6
:10008000A55F0000615B0000715B0000815B000008
:10009000915B0000A15B0000192F0000A55F00002C
:1000A000A55F0000A55F0000A55F0000A55F000040
:1000B0000000000010B5064C2378002B07D1054B3B
:1000C000002B02D0044800E000BF0123237010BDC4
:1000D000880A0020000000006CFC0100084B10B5ED
:1000E000002B03D00749084800E000BF0748036819
:1000F000002B00D110BD064B002BFBD09847F9E731
:10010000000000008C0A00206CFC01006CFC010067
:100110000000000010B5034B1B68002B00D098476F
:1001200010BDC046A40A0020044B802212025A616E
:10013000802252005A6100207047C04600280040CB
:1001400070B5441E002804D0024D0120A847013C90
:10015000FBD270BDE1290000F8B5074C80273F02B3
:10016000676180256D0065610120044EB047A7617D
:100170000A20B047A561F8BD0028004041010000F9
:1001800070B582B00023164A136001AC012565707A
:10019000A370257021000820124EB04721000F20C7
:1001A000B04721001C20B0470F4B802212025A6139
:1001B000802252005A610D4B1B681D4203D00B4B2D
:1001C0001B689B0701D40A4B98470A4B98470122AA
:1001D000094B1A70BFF35F8F62B6002002B070BD8A
:1001E000A40A0020FD3600000028004010E000E0D6
:1001F00075290000590100000C00002010B584B0E2
:100200000E4B186001AC20000D4B9847162301934C
:1002100000236360013323720133E372210006205F
:10022000084B9847002206210748084B98470021B1
:100230000620074B984704B010BDC046A40A002012
:10024000E1320000F53200001501000081310000AC
:10025000AD31000010B5002804D100210620044B68
:10026000984710BD00210620024B9847F9E7C04689
:10027000CD310000AD31000010B590B02B4C1723EC
:10028000237000236370A37001A901224A708B7050
:100290000A701720264B98472278D109002300299D
:1002A00004D15309DB0123498C4663441F211140CB
:1002B000012210008840986102AC22700023039351
:1002C000049323746374A274E27423752332A354D9
:1002D000183A002108A8184B9847184BA3618023AF
:1002E0005B02E360164BA36201235B42E362154BA2
:1002F0002363154B6363220014491548154B984737
:10030000002810D1124B1A68D369002BFCD1136856
:1003100002210B431360104B984701200F4B984765
:10032000002010B010BD06204042FAE70411002062
:10033000FD360000002800409D810100A0860100DC
:1003400003002200030036000300370000040043CE
:10035000081100202148000059010000410100005F
:10036000F0B5DE4657464E464546E0B583B0032815
:1003700000D075E00E684D680C8900226B46DA717A
:10038000002D27D0002C65D0002E00D177E000236F
:10039000984600239B4601223B493C483C4B9847EA
:1003A0003A4B9A4601270422994659464B425941F5
:1003B0008B46307853461B68197E3942FCD0197E33
:1003C0003942FCD09862197E1142FCD049468979A5
:1003D0008C4611E0002E3AD0002C3ED000239846E7
:1003E00001339B466B46DD1DD5E7604601280DD0E5
:1003F000986AC0B200290DD0197E1142FCD0588BEA
:1004000000211042F1D05A831E31EEE7986AC005F0
:10041000C00DEFE72870013CA4B25D444346594249
:100420004B41F618002CC4D1184B196802220B7EE0
:100430001342FCD0002214491448154B9847002061
:1004400003B03CBC90469946A246AB46F0BD0F2097
:100450004042F5E70F204042F2E70F204042EFE72D
:100460000A22FF320B490C480C4B98470C480D4BA5
:1004700098470D200C4B984701204042E0E70123AC
:1004800098466B46DE1D84E7041100200811002009
:10049000FD4A0000E0CC0100F0CC010051820100D7
:1004A00004CD01002983010075820100064B1A6802
:1004B000D369002BFCD18F33137513761368022197
:1004C0008B4313600020704708110020002A04D0DD
:1004D0008218017001309042FBD17047024AD378F4
:1004E0000133DBB2D3707047141100207047000055
:1004F00000B583B000220A4B9A700120094B98473F
:1005000001A90948094B9847002801D003B000BD54
:100510000221019B194301910348054B9847F5E7D8
:10052000141100205502000070100000391900005D
:100530004519000010B50C4B9B780020002B0DD105
:10054000094B5B78002B03D1074B1B78002B06D19E
:10055000054A53780133DBB25370002010BD034BC2
:1005600098470028F4D0F9E714110020F91500008D
:10057000054B5B78002B04D0034A5378013BDBB278
:10058000537000207047C0461411002010B50B4B6B
:100590005B78002B04D0094A5378013BDBB25370DF
:1005A000064B5B780020002B03D1044B1B78002BFB
:1005B00000D110BD024B9847FBE7C0461411002044
:1005C0009115000010B5054B984704002C2200211E
:1005D0000348044B9847200010BDC0463505000075
:1005E00014110020CD040000F0B5DE46574680B55A
:1005F00089B083468A460192009310AB80CB1E8857
:1006000012AB1D8807AA7F230B4053701070002F78
:1006100042D033000833EB185380724B07AA52883C
:100620009A4200D9CDE0704B9847041E00D0BBE041
:100630000023059302AAD3800493049B5A461A43CD
:100640000492049A53461B0213430493049A07AB83
:100650005B881B041343049304996448644B9847D4
:10066000041E54D100230493049B022213430493D9
:10067000049960485E4B9847041E48D100220592B9
:1006800002ABDA8006331B889BB25B4A934246D8A2
:100690005A4C5B4B9A4614E0009B083307AA5380E0
:1006A000BBE70120D047049B9B0728D502AB9A1DCE
:1006B000DB8801339BB2138013889BB24E4A93426E
:1006C0002DD804A94B48A047002828D102AB0633F7
:1006D0001B889BB2F422FF329342E4D902AB06336B
:1006E0001B889BB201329342DBD84648464B984761
:1006F0004648474B98470D20464B9847D1E705A9F8
:1007000045483E4B9847041E09D000230593434BB0
:100710009847200009B00CBC92469B46F0BD059B53
:10072000002B3CD0059B06930698082207A93C4B5A
:100730009847041EEBD1069B08330693019B002BC0
:100740000BD00698009A1900354B9847041EDED14D
:10075000069B009A944663440693002F0ED0069B96
:10076000009AAD1AED1806950698320039002C4B08
:100770009847041ECBD1069BF3180693059B9B005C
:100780000493049B02221343049304992548184BB5
:100790009847041EBBD1244B98470400B9E7224B6D
:1007A000984703246442B4E7CB2252001F492048F3
:1007B000154B98471F48164B98470D20154B9847E7
:1007C000A7E7CE225200194919480F4CA04707ABA2
:1007D0005988044A1848A0470D200E4B9847012419
:1007E000644296E73C060000350500008C100000CE
:1007F0004519000078100000E703000039190000D7
:100800004101000074D001005182010080D001003C
:1008100029830100758201000004150071050000A4
:10082000B91900006C1000008D05000038CD0100E2
:10083000F0CC010090D00100B0D00100F0B5DE4650
:1008400057464E464546E0B587B00022D34B1A7155
:100850000024984699468BE1012399430391D0489F
:10086000D04B9847002800D0E5E10122CB4B9A708D
:10087000039B9B041B0D9A4600D147E1002305937F
:1008800005A9C948C94B9847071E0DD0CE22FF3293
:10089000C749C848C84B9847C848C94B98470D2016
:1008A000C84B98473C004AE1BC4B059A9A605246B7
:1008B000DA6004AF042239000598C34B9847834699
:1008C0007B889BB27B80002835D104AB5B889BB2D0
:1008D0009A4505D004AB5B885246D31A042B38DC0A
:1008E00004AB1B78012B4AD004AB1B78022B7DD0C4
:1008F00004AB1B78042B00D195E004AB1B78062BCE
:1009000000D1ADE004AB1B78072B00D1C5E004ABF0
:100910001B78052B00D1DCE084229200A449A54875
:10092000A54B9847A948A64B98470D20A54B98473B
:100930000624644203E1EB2252009D499D489E4BF0
:100940009847A3489E4B98470D209E4B98475C467E
:10095000F5E0EF22520096499648974CA04704A92B
:100960004A8892B20B78DBB2497800915146994897
:10097000A0470D20934B984706246442DFE0874B45
:100980001B69002B25D0854B1B6904AA5078C0B287
:100990005188059A0832083989B298477F4B9B786D
:1009A000002B00D1E4E08C4A81498248824FB8474D
:1009B00004AB1978C9B25A78D2B28848B8470D202A
:1009C000804B9847864B9847002800D1D0E0040020
:1009D000B5E0EA22FF3276497648774B984781485E
:1009E000774B98470D20774B9847D7E76B4B5B6960
:1009F000002B0BD0694B5B6904AA5078C0B25188B8
:100A0000059A0832083989B29847C7E7F822520098
:100A100067496848684B98477348694B98470D2069
:100A2000684B9847BAE75D4B9B69002B0BD05B4B3B
:100A30009B6904AA5078C0B25188059A08320839D7
:100A400089B29847AAE7F822FF32594959485A4BC8
:100A5000984766485A4B98470D205A4B98479DE750
:100A60004E4B5B6A002B0BD04C4B5B6A04AA507850
:100A7000C0B25188059A0832083989B298478DE783
:100A8000FF2252004A494B484B4B984758484C4B21
:100A900098470D204B4B984780E7404BDB69002B74
:100AA0000BD03E4BDB6904AA5078C0B25188059A3E
:100AB0000832083989B2984770E74E4A3C493D48A8
:100AC0003D4B98474C483E4B98470D203D4B98472F
:100AD00064E7324B9B6A002B0BD0304B9B6A04AA15
:100AE0005078C0B25188059A0832083989B29847BF
:100AF00054E7832292002E492E482F4B98473F48B7
:100B00002F4B98470D202F4B984747E73C4A2849E1
:100B10002848294B98473B48294B98470D20294B9B
:100B20009847022464420AE0374A21492148224B6F
:100B300098473648224B98470D20224B9847002D66
:100B40006CD09B22920032491A481B4FB8472A00AA
:100B500021003048B8470D201A4B9847013D03A9A2
:100B60000F48B047041EDFD10399CB0700D573E6C9
:100B70004346DB78002B60D04B461B79002B5CD1C1
:100B80000020254CA047054AD378013BDBB2D37047
:100B90000120A0470425054EE1E7C04614110020BE
:100BA0007010000045190000841000003919000081
:100BB00044CD0100F0CC01005182010078CD01004C
:100BC000298301007582010051190000C0CE010087
:100BD0009CCD0100B4CD010016020000D8CE01006A
:100BE000F1040000F4CD010014CE010038CE010064
:100BF00058CE0100050200007CCE0100A0CE01000D
:100C00001D02000004CF01002E02000018CF0100D9
:100C10004CCD010084CF0100550200009A229200C1
:100C20000A490B480B4DA84721000B48A8470D2047
:100C30000A4B98479CE7040081E7200007B03CBCC2
:100C400090469946A246AB46F0BDC0464CCD010049
:100C5000F0CC0100518201003CCF010075820100FF
:100C600070B514001D00002803D0002901D0002A0F
:100C700012D1002D02D0274B984770BD264A274934
:100C80002748284B98472848284B98470D20284B41
:100C900098470C204042F0E7264BDB689A421AD86E
:100CA000244B9B68984226D38618224A9368D268C0
:100CB0009B189E421FD822001F4B98470028DCD16A
:100CC0001C4A9368D2689B189E4201D0002DD4D054
:100CD000104B9847D1E7194A10491148114DA847C0
:100CE000144BDA6821001648A8470D20104B98478E
:100CF0000C204042C1E7134A08490948094B98476C
:100D000011480A4B98470D20094B98470C20404248
:100D1000B3E7C046F10400008D0200005CCD010085
:100D2000F0CC010051820100BCCF010029830100F9
:100D30007582010014110020511900009502000075
:100D4000DCCF01009B02000024D0010070B504003C
:100D500007281FD88300164AD3589F46154B596160
:100D6000002070BD134B19610020FAE7114B996107
:100D70000020F6E70F4B19620020F2E70D4B596295
:100D80000020EEE70B4BD9610020EAE7094B99629E
:100D90000020E6E7084A094909480A4DA84721000A
:100DA0000948A8470D20094B98470C204042D8E736
:100DB00018CD010014110020D302000068CD0100FD
:100DC000F0CC01005182010068D001007582010061
:100DD00010B52C2200210648064B98470648074BC1
:100DE000984707490320074B9847002010BDC0468D
:100DF00014110020CD040000DD040000FD010000FE
:100E0000ED0400004D0D000030B59FB0040015004A
:100E10002C2836D01B2844D0062852D00E282ED09D
:100E200032285ED03D2800D16BE02F2800D178E039
:100E3000342800D18AE0112800D1AAE0132800D17B
:100E4000C0E0042800D1CFE0652800D1DEE0092809
:100E500000D1EDE02A2800D1FCE0272800D10BE1E9
:100E6000202800D11AE11022FF329B499B489C4D5B
:100E7000A84721009B48A8470D209B4B98471FB0CF
:100E800030BD0023042203A92800984CA047002865
:100E9000F5D1974B1B68002BF1D003A92C30984754
:100EA000EDE70023082203A92800904CA047002862
:100EB000E5D18F4B1B68002BE1D003A91B3098476D
:100EC000DDE70123302203A92800884CA047002831
:100ED000D5D1874B1B68002BD1D003A9063098478A
:100EE000CDE70023182203A92800804CA047002842
:100EF000C5D17F4B1B68002BC1D003A93230984766
:100F0000BDE70123002200212800784CA0470028DB
:100F1000B5D1774B1B68002BB1D000213D309847ED
:100F2000ADE76422002103A8724B98470023642296
:100F300003A928006D4CA0470028A0D16C4B1B686A
:100F4000002B9CD003A92F30984798E70023042258
:100F500003A92800654CA047002800D08FE7664809
:100F60005F4CA0470398030CFF210B40020A0A4084
:100F70000140000E00906148A0470D205A4B984751
:100F80005B4B1B68002B00D179E700213420984788
:100F900075E700225A4B1A700023043203A9280077
:100FA000524CA047002800D069E703AB1A78554B94
:100FB0001A704F4B1B68002B00D160E703A911305A
:100FC00098475CE700232C2203A92800474CA04740
:100FD000002800D053E7464B1B68002B00D14EE79A
:100FE00003A9133098474AE7002304221CA92800CC
:100FF0003E4CA047002800D041E73D4B1B68002B2A
:1010000000D13CE71CA90430984738E700230422AC
:101010001CA92800354CA047002800D02FE7344BEE
:101020001B68002B00D12AE71CA96530984726E7EA
:101030000123642203A928002C4CA047002800D0DB
:101040001DE72B4B1B68002B00D118E703A90930C3
:10105000984714E70123042203A92800234CA04742
:10106000002800D00BE7224B1B68002B00D106E7BD
:1010700003A92A30984702E70023042203A9280085
:101080001A4CA047002800D0F9E6194B1B68002B2A
:1010900000D1F4E603A927309847F0E600230822A0
:1010A00003A92800114CA047002800D0E7E603ABB5
:1010B0009A8828000830012303990C4CA047002887
:1010C00000D0DCE60A4B1B68002B00D1D7E603A951
:1010D00020309847D3E6C046E4D00100F0CC0100B0
:1010E00051820100F8D1010075820100610C0000FD
:1010F000A80A0020CD04000074D00100D8D101005E
:10110000AE0A0020AC0A002010B5044B9847002816
:1011100002D10122024B1A7010BDC046011B000013
:10112000AD0A0020F0B58FB001220F236B441A7076
:10113000002867D00268354B1A600022344B1A70C1
:101140000F206844334B9847041E02D020000FB094
:10115000F0BD0222304B1A700020304B9847041E1D
:1011600049D12F4901202F4B984704AE30002E4B18
:10117000984704002D482E4DA847B37972793179EC
:10118000308C00902B48A8470D202B4FB84727489C
:10119000A84726226A441A2169442848A8470D20F6
:1011A000B8472248A847737A327AF1792448A84789
:1011B0000D20B8471D48A8470123062213212148C6
:1011C000A8470D20B8471948A8471F4A1F4920487B
:1011D000A8470D20B84723000D33B7D1F0225200A5
:1011E0001C491D48124B98471C481D4B98470D2021
:1011F000114B9847AAE70022074B1A700020194BA1
:101200009847A3E70C246442A0E7C046A80A002040
:10121000AE0A0020711B0000AD0A0020D10D0000B5
:10122000090E00004D0D0000211A000074D00100CD
:10123000518201000CD201007582010034D20100FC
:1012400050D2010074D201008CD2010098D201006A
:10125000A4D201000CD10100F0CC0100BCD20100ED
:1012600029830100F91B000010B50400044B9847C6
:10127000002800D010BD2000024B9847FAE7C04676
:10128000091100002511000010B50022044B1A704E
:101290000020044B98470020034B9847002010BDC6
:1012A000AD0A0020C5050000F91B000010B5014B78
:1012B000984710BD3D08000030B585B0041E1AD017
:1012C0000378002B24D043780A3BDBB2F02B2CD8D8
:1012D0008378013B012B35D8C3787F2B41D900237C
:1012E0000293019300930433020014210120244C43
:1012F000A04705B030BDBE22520022492248234BF0
:1013000098472348234B98470D20234B984725E0C7
:101310008422FF321B491C481C4DA84721781F48D6
:10132000A8470D201C4B984718E0C52252001549CC
:101330001548164DA84761781948A8470D20164B47
:1013400098470BE09222FF320E490F480F4DA847F5
:10135000A1781448A8470D200F4B98470C20404215
:10136000C7E7CC22520007490748084DA847032188
:1013700061560D48A8470D20074B9847EEE7C04639
:10138000E9050000F0D00100F0CC0100518201001D
:1013900020D101002983010075820100D8D201000B
:1013A000F8D2010014D3010044D3010010B586B077
:1013B000104B1B78002B16D1431E0D2B01D9FF2893
:1013C00014D105AA107000230293019300930433F3
:1013D00010210120084CA047002802D10122054B12
:1013E0001A7006B010BD0E204042FAE70F204042AE
:1013F000F7E7C046AE0A0020E905000010B586B048
:1014000005AA107000230293019300930433122164
:101410000120024CA04706B010BDC046E9050000FF
:10142000014B1878C0B27047AC0A0020F0B583B009
:1014300080256D000543A5246401084F084E29004E
:101440002000B8470023019301A92000B0470028DD
:10145000F5D1019B9D42F2D103B0F0BD45190000CA
:101460003919000000B583B00023019301A9114888
:10147000114B9847002801D003B000BD80214900DE
:10148000019B194301910B480C4B98470028F3D15D
:1014900001A9D0204001084B98470028ECD18021B9
:1014A0004902019B19430191D0204001034B984709
:1014B000E2E7C04608140000391900004519000091
:1014C00010B582B0284B1C68002C04D0264B1C6839
:1014D000200002B010BD190080204001234B984726
:1014E000002803D00022204B1A60F1E701A9204810
:1014F0001E4B9847002803D000221B4B1A60E7E7D9
:10150000194B1B681B4A93420ED01B4A934212D0C0
:101510001A4A93421CD01449194A0B681A40A02356
:10152000DB0213430B60D1E7019B012BF3D0154A7B
:101530000D4B1A60EFE7019B032BECD0042B03D07B
:10154000114A094B1A60E6E7104A074B1A60E2E7B6
:101550000549EC208003054B98470028DBD000228A
:10156000014B1A60B4E7C046B00A002039190000E8
:10157000F4130000A0021000B0021000F0001000F0
:10158000FFFFF0FFA1021000B2021000B102100034
:1015900030B583B0164C012501A91020A0470028C2
:1015A0001CD1019B2B42F7D101A90130104B984768
:1015B000002813D101998B0707D502239943019184
:1015C00001300C4B9847002808D101A90B20084B8B
:1015D0009847002802D10199CB0701D403B030BD50
:1015E0000123994301910B30024B9847F6E7C0461F
:1015F0003919000045190000F0B583B000230193AC
:10160000009301A90B20284B9847041E30D1019963
:10161000CB0706D4012319430B20244B9847041E03
:1016200026D101A90120204B9847041E20D1019901
:101630008B0720D505251C4F1D4E69460F20B84746
:10164000041E20D1009B5B072BD40220B047013D34
:10165000002DF2D1AD22520016491748174B98477A
:101660001748184B98470D20174B9847042464429D
:10167000200003B0F0BD0223194301200B4B984713
:10168000041ED7D0F4E7A82252000A490A480B4D9D
:10169000A847009A21000D48A8470D200A4B9847FB
:1016A000E6E70B4B9847E3E73919000045190000BE
:1016B0004101000060D30100F0CC01005182010023
:1016C000A8D30100298301007582010090D3010095
:1016D00021190000F0B5C64600B58046364D374C9E
:1016E000374E2800A047002802DB0120B047F8E76A
:1016F0003448324B9847C30746D54346022B26D081
:101700004346032B2DD04346042B33D02E492F487C
:101710002F4B984700242F4B98470005000D2E4B68
:1017200098422DD9022020432C4B98472C482D4C11
:10173000A04725492C48A0470D202C4B98472C4901
:101740002C48234B9847002004BC9046F0BD2A4902
:101750002A481F4CA047802149031C48A047002469
:10176000D9E7254925481A4CA04700211748A0472A
:101770000024D0E714491548154B98478024CAE740
:101780002000164B9847D1E701200D4B9847194888
:101790000A4B98478024A401194D094F074EA842CF
:1017A000ABD00120B8471348B047013C002CF6D11C
:1017B00005204042C8E7C046141000002D19000063
:1017C00041010000BC070200611330138C100000BF
:1017D00045190000C11400009F0300002D140000F3
:1017E00074D0010051820100C4D301007582010050
:1017F000612F52EF0C000C007DD51C3CAC070200A1
:101800009ED0AD1070B582B0154B0193154B00936F
:101810000238012811D98024A4010020124E134D52
:10182000009B98420ED00220B0470198A847013C87
:10183000002CF5D10520404209E00D4B01930D4BE2
:101840000093E8E7009A074B00209A4201D002B0CB
:1018500070BD00210248084B98470020F7E7C046BA
:101860008C10000036265302410100002D190000A3
:10187000AC070200C3C15DD74519000010B582B0A6
:101880000023019301A9A0204001144B9847041E96
:1018900015D11349019B19400191A0204001114B22
:1018A0009847041E16D0104A10491148114B98470A
:1018B0001148124B98470D20114B98470AE0114AE6
:1018C0000A490B480B4B98470B480C4B98470D2087
:1018D0000B4B9847200002B010BDC04639190000DC
:1018E000FFFBFFFF45190000070200006CD3010059
:1018F000F0CC01005182010078D30100298301005E
:10190000758201000102000010B5014B984710BD1F
:101910007902000010B5014B984710BDAD040000DE
:1019200010B5014B984710BDE922000010B5014BDE
:10193000984710BD2123000010B5014B984710BDFA
:101940003523000010B5014B984710BD4D23000012
:10195000F0B5D6464F464646C0B582B08046894669
:101960001500134B1F88083FBBB201931E000400F3
:101970009A421AD90F4B9A46371A4346E11A4944FC
:10198000019A2000D047002809D1AD1B3919A419AC
:10199000B542F2D8AAB249442000064B984702B09B
:1019A0001CBC90469946A246F0BD0021F2E7C04615
:1019B000000000208D240000F0B5D6464F46464674
:1019C000C0B582B0804689461500134B1F88083F7A
:1019D000BBB201931E0004009A421AD90F4B9A46DB
:1019E000371A4346E11A4944019A2000D04700289B
:1019F00009D1AD1B3919A419B542F2D8AAB249448C
:101A00002000064B984702B01CBC90469946A2465F
:101A1000F0BD0021F2E7C04600000020E9250000EB
:101A200070B584B00400002303930822002101A8AC
:101A30002D4B9847002C45D02822002120002B4B0D
:101A4000984703A92A482B4B984700283BD1039B72
:101A5000002B3AD0C02080021843082201A9264B4F
:101A6000984700282FD1029B1804000C03902FD018
:101A7000C0239B021843282221001F4B98470028AF
:101A800021D121790902A2790F231A400A436179F1
:101A90000901FF2529400A43E1790902667A3340AA
:101AA0000B43217A09010D402B43002A13D0002B50
:101AB00014D012498B4214D89B235B019A4202D85E
:101AC0000D3800E0002004B070BD0C204042FAE761
:101AD0000C204042F7E70C204042F4E70C20404243
:101AE000F1E70D204042EEE79D810100CD040000AA
:101AF00008000C00391900005119000061130000A2
:101B000070B500200F4B9847041E0ED10E480F4DA4
:101B1000A8470F4B984701000E48A8470D200E4BD1
:101B200098470E4B9847200070BD862252000C4902
:101B30000C48064B98470C480C4B98470D20064B19
:101B40009847F0E70919000074D0010051820100A4
:101B5000C114000090D401007582010065230000CB
:101B6000DCD30100F0CC010074D401002983010012
:101B700070B5002827D005786B1E032B00D90125EE
:101B80002800124B9847041E17D12800104B984785
:101B9000041E12D1023D012D13D90E4B9847041E8D
:101BA0000FD0A82252000C490C480D4B98470D4805
:101BB0000D4B98470D200D4B98470D4B98470D4BFB
:101BC0009847200070BD0125DAE7C046D516000011
:101BD0000518000065140000F0D30100F0CC0100EE
:101BE00051820100A0D40100298301007582010007
:101BF000151900001123000010B51C4B9847041E56
:101C00000BD100201A4B9847041E14D1194B98474A
:101C1000041E1DD1184B98470BE08222FF32174952
:101C20001748184B98471848184B98470D20184BE1
:101C30009847200010BDC422520010491048114B93
:101C400098471448114B98470D20114B9847F0E7DF
:101C5000C722520009490A480A4B98470E480B4BC5
:101C600098470D200A4B9847E3E7C0467D180000CF
:101C70008D280000151900001123000004D4010074
:101C8000F0CC01005182010014D40100298301002D
:101C90007582010034D4010058D4010000B585B02C
:101CA00001AB019000220292198119000320024B1E
:101CB000984705B000BDC0466103000070B584B010
:101CC00008AC257801AC20703F30C4B20E2C00D98E
:101CD00084E0A0004F4C2058874601AB0A0C5A7094
:101CE0000A0A9A70D97005214B4B1B78002B77D0CC
:101CF0000139C9B283E00B0ADBB2002D07D101AA7A
:101D0000537001AB99700022DA700521ECE7802254
:101D10005242134301AA5370F3E701AB00225A70F9
:101D20009A70DA700521DFE701AB00225A709A70D1
:101D3000DA700521D8E701ABFF225A709A70DA7089
:101D40000521D1E701AA080C5070080A9070D170E3
:101D5000190A117153710721C6E701AA080C5070C6
:101D6000080A9070D170190C1171190A5171937190
:101D70000821B9E70B0ADBB2002D0CD101A8437092
:101D800001AB9970110ED970110C1971110A5971AA
:101D90009A710821A8E780204042034301A84370BC
:101DA000EEE701AB080C5870080A9870D970110E54
:101DB0001971110C5971110A9971DA71092193E79E
:101DC0009022520015491648164B98471648174B53
:101DD00098470D20164B9847002317E0002315E085
:101DE0004E1E01AA95197F23124C5B0010784340C8
:101DF000E35C0132AA42F8D15B0001AA935589B293
:101E000001A80D4B984701230028D9D1180004B030
:101E100070BDC046C0D40100B40A002000D5010046
:101E2000F0CC01005182010090D90100298301000A
:101E3000758201008CD501009D1C000000B585B0A5
:101E400001AB002201920290198119000320024B7C
:101E5000984705B000BDC04661030000F0B5C64616
:101E600000B582B00700CF282BD003003B33DBB294
:101E7000012B26D90B246B46DE1D264B98460121EB
:101E80003000C047051E25D13378BB4230D0013C1D
:101E9000E4B2002CF3D10B346B46DE1D1D4F012143
:101EA0003000B847002825D13378002B2FD0013CD3
:101EB000E4B2002CF3D10125280002B004BC904606
:101EC000F0BD01216B46D81D124B98470025002814
:101ED000D0D0F1E75C22FF320F491048104B9847F1
:101EE0001048114B98470D20104B98470025E3E709
:101EF0000B24D1E76A22FF3207490848084B98476C
:101F00000848094B98470D20084B9847D4E701250E
:101F1000D2E7C0463D1E000018D50100F0CC0100FC
:101F200051820100BCD901002983010075820100A2
:101F3000F0B5DE4657464E464546E0B587B00190BF
:101F40008946029200239A4680239B019B466A465B
:101F5000D3813C4B98462FE0BE2292003A493B4841
:101F60003B4B98473B483C4B98470D203B4B984791
:101F70000025280007B03CBC90469946A246AB46D7
:101F8000F0BD002C2EDD019B5344180039002D4B71
:101F90009847041E34D1029B002B03D1304B1B7891
:101FA000002B39D05346FB181BB29A464B46DF1B19
:101FB000BBB29946002B43D04F46D94501D96B4659
:101FC000DF89BFB20A2404ABDE1C01213000C04708
:101FD000051EC1D133781B090F2BD2D0013C24B28E
:101FE000631CF2D1C122920017491848184CA0472F
:101FF00004ABD9781B48A0470D20184B9847B8E789
:10200000194A11491148124B98471848124B9847E2
:102010000D20124B9847ACE7022105A8094B9847C1
:102020000028BFD0C622920007490848084B9847AD
:102030000F48094B98470D20084B9847250098E713
:10204000012596E73D1E000024D50100F0CC0100DB
:1020500051820100F0D9010029830100758201003D
:10206000B40A002024DA01000D03000054DA010054
:1020700084DA0100F0B5D6464F464646C0B586B074
:102080000390049130280FD8304B1F78FBB2059392
:102090000023302203998A425B41DBB29A460A252B
:1020A0002B4B9846D14633E02A4B1F78EEE7059834
:1020B000294B98470400012841D0284A284929483B
:1020C000294EB04703992948B0470D20284B98471F
:1020D0000120284EB0470023009300220021CF208A
:1020E0001B4FB847CF201C4B9847EA2292001C494F
:1020F0001C481D4FB847049B039A29001E48B84747
:102100000D201B4B98470120B047013D002D16D0F4
:102110004B4600930423049A039F39000598C04757
:1021200004000128C3D0154A0D490E480E4EB04791
:1021300039001348B0470D200D4B9847C8E72000E1
:1021400006B01CBC90469946A246F0BDFCD40100E6
:10215000BD1C0000FDD401005D1E000095030000C1
:1021600044D50100F0CC0100518201007CDB01006C
:102170007582010041010000B4DB01008F03000003
:1021800050DB0100F0B5DE4657464E464546E0B509
:1021900087B002908B46FF280FD8414B1F78FBB2C7
:1021A00003930023FF2202998A425B41DBB29A46E5
:1021B0000A253C4B9846D14631E03B4B1F78EEE771
:1021C00003983A4B98470400012840D0384A3949CF
:1021D00039483A4EB04702993948B0470D20394B3B
:1021E00098470120384EB047002300930022002179
:1021F000CF202C4FB847CF202C4B9847334A2D493E
:102200002D482E4FB847029A29003148B8470D2073
:102210002C4B98470120B047013D002D38D04B464C
:10222000009304230022029F39000398C047040052
:102230000128C5D08222D2001E491F481F4EB04738
:1022400039002448B0470D201E4B9847C9E74A463D
:10225000042105A8204B9847040001280BD01F4AF1
:1022600014491548154B98471D481E4B98470D209B
:10227000144B9847B5E705AA53781B0291780904D7
:102280000B4311780B43D278120613435A4613605E
:10229000200007B03CBC90469946A246AB46F0BD34
:1022A000FED40100BD1C0000FFD401005D1E000033
:1022B0001604000064D50100F0CC01005182010039
:1022C000E4DA0100758201004101000035040000DC
:1022D00038DB0100B8DA0100311F00001D040000E6
:1022E00018DB01002983010010B582B000230093A0
:1022F00000220021CF20044CA047CF20034B984759
:10230000002002B010BDC046BD1C00005D1E0000D4
:102310000022024B1A7000207047C046B40A002009
:1023200000B583B001A9024B9847019803B000BDE6
:102330008521000010B5044B98470023012801D1E6
:10234000180010BD063BFBE78521000010B5044BCB
:1023500098470023012801D1180010BD063BFBE778
:102360007520000010B582B000230093354A137029
:1023700069463548354B9847002828D0314B1B78A3
:10238000002B0DD17C33009999432C3B19430091CC
:102390002D482F4B9847041E3AD00122294B1A7022
:1023A00001A980204001294B984700283CD0264CA9
:1023B0002000284B98477023010099435020014387
:1023C0002000254B98470024200002B010BD0122B8
:1023D0001C4B1A709822D20020492148214B984763
:1023E0002148224B98470D20214B984769461648B3
:1023F000164B9847041EC1D11E4A18491848194B5C
:1024000098471D48194B98470D20194B9847DBE713
:102410001A4A12491248134B98471948134B9847C8
:102420000D20134B9847CFE7164A0C490C480D4B2B
:10243000984715480D4B98470D200D4B984706249B
:102440006442C1E7B40A002024E8000085210000AE
:1024500075200000212300004D23000080D50100DD
:10246000F0CC0100518201008CD6010029830100CB
:1024700075820100C3040000DCD60100CD04000019
:1024800008D70100D70400003CD70100F0B5DE46B4
:1024900057464E464546E0B587B002900391160078
:1024A0000A2500239B4600243E4B9846A94637E068
:1024B00001239B46013635E0C8203B4B9847012855
:1024C00045D03A4A3A493B483B4FB84702993B48C6
:1024D000B8470D203A4B984701203A4FB84700942F
:1024E000230022002100CF202E4DA847CF202E4BC5
:1024F0009847354A2E492F482F4B9A469847330024
:10250000029A49463148D0470D202D4B984701206B
:10251000B84701235B429C46E1444B46002B38D030
:10252000012EC5D0009433002200029D2900C8204E
:10253000C0470128C0D0264A1D491E481E4FB84733
:1025400029002448B8470D201D4B9847C4E75B4637
:10255000002B16D005AF2200310038001E4B9847E3
:102560003B78039A1370012811D01C4A1049114876
:10257000114B98471A481B4B98470D20104B984712
:10258000AAE7220031000398134B9847EBE700209D
:1025900001E00620404207B03CBC90469946A24666
:1025A000AB46F0BDBD1C00005D1E00005C040000D9
:1025B00074D50100F0CC01005182010090D70100D8
:1025C00075820100410100007D040000F0D7010088
:1025D0005604000060D70100311F00006C040000A9
:1025E000C8D7010029830100F0B5DE46474680B513
:1025F00089B004908B4603920A268027BF016B4660
:10260000DF8235002DE0013303932DE0824A8349B8
:102610008348844CA04731008348A0470D20834B5A
:1026200098470120824CA0470023009300220021FC
:10263000CF20804EB047CF207F4B98477F4A7749C5
:102640007748784EB047039B049A29007C48B047EE
:102650000D20764B98470120A047013D002D00D169
:10266000D2E0039B012BCED000230093039B0022DA
:10267000049E3100C7206F4CA0470128C6D1C72057
:102680006D4B984701280BD06E4A64496448654CED
:10269000A04704996C48A0470D20644B9847C0E7B9
:1026A000002207AB1A80039C0026A84635002600AE
:1026B00021E00023B7425B4102330B2004AA944679
:1026C0006044102252421343037001215F4B98472C
:1026D00000281DD15B46581921005C4B9847002803
:1026E0002ED15B4B1B78002B37D065192DB2361BD2
:1026F000B6B2002E52D0341CBE4201D96B46DC8AE1
:10270000A4B2002DD5D10323BE42D6D9023BD4E7D3
:102710004546504A50494248424B98474F48504BD3
:1027200098470D20414B98474E4A3C493C483D4B09
:1027300098474D484A4B98470D203C4B984770E7C7
:1027400045464A4A44493648364B98474848444BE0
:1027500098470D20354B9847E6E7022107A83B4BE9
:1027600098470028C1D04546D72292003A492C48C4
:102770002C4B98473F483A4B98470D202B4B984796
:10278000D2E79A2252003C492548264B98473B48BD
:10279000334B98470D20254B984727E045462C4B57
:1027A0001C78631E9C410234A1B207A8344B9847A1
:1027B0000028E6D108AB1B19053B1B78002B06D17E
:1027C00008AB9C466444063C2378C32B1AD03C22B9
:1027D000FF3229491248134CA04707A98B784A7841
:1027E00009782848A0470D20104B9847264A0B49E6
:1027F0000B480C4B98471C48194B98470D200B4B26
:1028000098470EE7002001E00620404209B00CBCCA
:1028100090469B46F0BDC046C303000054D501005E
:10282000F0CC0100518201000CD80100758201003A
:1028300041010000BD1C00005D1E0000EB03000014
:10284000F0D70100C90300003CD801009D1C000026
:10285000B40A00204903000034D5010074D80100F7
:1028600029830100D903000068D901005203000048
:10287000ACD80100E0D8010008D5010018D901004A
:102880003D1E000038D90100E103000070B582B0A0
:1028900004002A4B98470005000D294B002598425B
:1028A00002D8280002B070BD01A92648264B9847DF
:1028B000051EF6D1254B019A134025491943019174
:1028C0002048244B9847002C20D000212248214C3E
:1028D000A047AB212148A04701212148A047002162
:1028E0002048A04781212048A047204E204C30009E
:1028F000A0470128FBD1154B019A134080214902C2
:10290000194301910F48134B9847CAE70021124819
:10291000104CA047B9211148A04701211048A047F9
:1029200000211048A04781210F48A0470F4E104CAE
:102930003000A0470128FBD1DDE7C046C1140000EC
:102940009F0300001014000039190000FF8F88F861
:102950000010110145190000080201000C020100DD
:10296000140201001C02010004020100180201000F
:102970002D19000070B50020084B98470500084C41
:10298000FA218900A047074B186007492800A04793
:10299000064B18600522064B1A6070BD9158000066
:1029A000F54A01000400002040420F00080000200A
:1029B00010E000E030B5084B1C68084A0025802173
:1029C0004902013807D3002CFBD05460956013688E
:1029D0000B42FCD0F5E730BD0800002010E000E01D
:1029E00030B5084B1C68084A00258021490201388F
:1029F00007D3002CFBD05460956013680B42FCD0C9
:102A0000F5E730BD0400002010E000E00C4B1B682F
:102A1000002B06D1EFF31083002B07D00022094BC7
:102A20001A70074A136801331360704772B6BFF318
:102A30005F8F0022044B1A700132024B1A70F0E7CC
:102A4000B80A0020BC0A00200C000020084B1A68BD
:102A5000013A1A601B68002B09D1064B1B78002B2A
:102A600005D00122044B1A70BFF35F8F62B6704726
:102A7000B80A0020BC0A00200C000020F0B5C646B1
:102A800000B582B001AC0125657000239846A370A3
:102A9000257021001320124EB047124F80231B03D4
:102AA000BB61257021001220B0478023DB02BB618F
:102AB000257021000D20B04780239B017B6125708C
:102AC00021000920B04780239B007B61434623708F
:102AD000657021001C20B04702B004BC9046F0BDD8
:102AE000FD360000002800400020704710B500238C
:102AF0000022037043708370C3700021038303625C
:102B0000C36106240471C0246401C480017242724E
:102B10008272C27202732A24025542738273C27394
:102B200003610275063C0255C3840385417510BDDF
:102B3000F0B5CE4600B598B005000C0016000800B0
:102B4000B24B98472C60B24A136A08210B431362B8
:102B500022780523D20704D5180018B004BC91468A
:102B6000F0BD2A68138C9BB2002BFBD122781C335A
:102B70009207F1D473782B71002B04D1A54AD36945
:102B800004210B43D3610023AB60EB602B61AB7678
:102B9000EB762B832B7780009F4BC5502A23F35C69
:102BA000002B05D1337B002B02D101336B7701E081
:102BB00000236B772F6833786A46137069461E20AE
:102BC000964B98471E20964B984734795822954942
:102BD00002A8954B9847132C0BD9F4885822914999
:102BE00002A8914B9847132C11D900248E4B99467B
:102BF0001EE0A40002ABE05801A900234B70CB708B
:102C00008B7001330B70C0B2884B9847E5E7A40086
:102C100002ABE05801A900234B70CB708B700133DD
:102C20000B70C0B2814B9847DFE70134142C18D0E9
:102C30000123A34032691A42F7D05822794902A8E9
:102C4000C847132CF1D8A30002AA985801A9002361
:102C50004B70CB708B7001330B70C0B2734B9847C5
:102C6000E3E7737B9B01B27BD2011343DBB23B7082
:102C7000337DDB0172781343DBB2BB70F378342B06
:102C800000D940E19B006A4AD3589F460422102095
:102C900002211AE0717A327A102016E00622102002
:102CA000012112E00822102000210EE00022302035
:102CB00000210AE000222020002106E0002200205E
:102CC000002102E0022210200121090170230B40A3
:102CD00013433B732A68138C9BB2002BFBD1727D8C
:102CE00017333F2A00D937E7F37BDB011A43D2B20F
:102CF0007A732A68138C9BB2002BFBD1B3787B705C
:102D00002423F35CDB00327B92001A43F37A1343F3
:102D1000B27A5200134303437B812A68138C9BB21F
:102D2000002BFBD1328B002A20D0102800D1C9E023
:102D300000D883E0202800D1A3E0302816D1F37A10
:102D4000002B0AD0F16980311723FF2900D903E74E
:102D5000316A8031FF2900D9FEE61723F169FF2986
:102D600000DDF9E6316AFF2900DDF5E67B891A43CB
:102D70007A812A68138C9BB2002BFBD1B38BFB8129
:102D80002A68138C9BB2002BFBD1338C3B822A68C0
:102D9000138C9BB2002BFBD13379F28813433B8118
:102DA0002A68138C9BB2002BFBD12A33F35CFB7097
:102DB00007233B711D33F35C002B1BD0F28C1D49A4
:102DC00017238A4200D9C7E67A822A68138C9BB2FD
:102DD000002BFBD1318D80231B01CA18154892B2FC
:102DE0001723824200D9B7E6B9822A68138C9BB2B6
:102DF000002BFBD1104B1B681A02E021C9000A40CE
:102E00009B065B0F1343BB850023A5E6E92A000060
:102E10000004004000140040401100206D590000E3
:102E2000FD580000A4DC010019810100695A00006E
:102E3000D0DB0100FF0F000020608000002895D14A
:102E4000F37A002B12D0F36980200001844663449A
:102E500019002E481723814200D97DE6336A634466
:102E600019002A481723814200D975E627491723FC
:102E7000F069884200DD6FE6306A884200DD6BE66B
:102E800074E7F37A002B12D0F36980208000844627
:102E9000634419001E481723814200D95CE6336A57
:102EA000634419001A481723814200D954E618498F
:102EB0001723F069884200DD4EE6306A884200DD63
:102EC0004AE653E7F37A002B12D0F3698020000220
:102ED0008446634419000F481723814200D93BE61A
:102EE000336A634419000B481723814200D933E643
:102EF00008491723F069884200DD2DE6306A8842D0
:102F000000DD29E632E7172326E6C046FF0F000062
:102F1000FF030000FFFF000070B52F4B1C68236803
:102F20009A795D791540EA072AD501229A7162697A
:102F3000931C636123689B8C9BB21380238B013BA2
:102F40009BB22383002B15D0637F002B18D02268FF
:102F5000D3795BB2002B13DB138C9BB2002BFBD11C
:102F6000137E02210B4313762268138C9BB2002B35
:102F7000FBD105E0012322681371237F052B16D0B6
:102F80006B0708D5042322689371E37E9B0702D563
:102F9000A37E9B0717D4AB0708D502232268937141
:102FA000E37E5B0702D5A37E5B0710D470BD0023D0
:102FB0002377E37EDB07E3D5A37EDB07E0D52000A4
:102FC000A3689847DCE72000E3689847E3E72369B4
:102FD00020009847EAE7C046401100200123037013
:102FE000002343708370C37003710F224271837199
:102FF000C371037270470268136802210B431360A8
:1030000070470323026853710268D3710268136822
:1030100002218B431360704770B504000D00D37814
:1030200003712160537843711379837113789B0284
:103030009178C9020B43517809020B43D17889007A
:103040000B43117949010B4391798903D0794003EE
:103050000143107A0003014352791204F020000367
:1030600002400A4313431E002B689B0701D42E60C5
:1030700070BD2000034B98472E602000024B9847FC
:10308000F6E7C04603300000F72F000070B5054C8E
:10309000E56980239B012B43E36101230B60024B15
:1030A000984770BD000400401930000070B54379A6
:1030B000012B05D0002B10D0022B0DD1082500E0EC
:1030C0000625002310C99A1C92000668B446624483
:1030D00054600133AB42F5D370BD0425F1E7000025
:1030E00010B50023026813720F4B426813400F4A59
:1030F00093420AD00379032B0ED00C0010340368DE
:1031000004C99A638C42FAD110BD03680A689A63B5
:1031100003684A689A63F7E78379023B012BECD88E
:1031200003680A689A63EFE7FF00FF0003000100ED
:10313000002302681372104B426813400F4A9342F7
:103140000AD00379032B0ED00A00103203689B6B60
:1031500008C18A42FAD1704703689B6B0B60036811
:103160009B6B4B60F7E78379023B012BECD803683C
:103170009B6B0B60EFE7C046FF00FF000300010000
:103180001723002A01D0180070478B00064A9B586D
:10319000002B03D0834205D01D23F4E7890088501B
:1031A0000023F0E70023EEE7481100201723002951
:1031B00001D01800704700221F2800D8024A0123BE
:1031C000834013610023F4E7002400401723002903
:1031D00001D01800704700221F2800D8024A01239E
:1031E0008340D3600023F4E70024004070B5002240
:1031F000104B1A70002310491F25104E0D4C0AE089
:103200000D4908E023780133DBB223700F2B10D86F
:1032100000211F2BF4D92800184001228240486960
:103220001042EFD04A619B009B59002BEAD098478F
:10323000E8E770BD44110020002400404811002040
:10324000064A137802210B43137001205368194278
:10325000FCD153681842F9D17047C04600240040A1
:10326000064A137802218B431370012053681942D8
:10327000FCD153681842F9D17047C0460024004081
:1032800010B5124A516980239B000B435361104AC9
:10329000137801210B431370013101205368194247
:1032A000FCD153681842F9D1094A137810210B4315
:1032B0001370084B19004031002204C38B42FCD12B
:1032C0000822054B1A60054B984710BD00040040CA
:1032D000002400404811002000E100E041320000DD
:1032E0000023036043600122027283720132C272C2
:1032F00043727047F0B583B005000C001C4B984733
:1033000001A900234B70CB7023790B70237A8B704B
:103310002078184B984700211F2D00D81649072206
:103320002A409200E77AA37A002B01D008231F439A
:10333000EB089B00CB18D8690F269640B043974006
:103340003A000243DA61637A002B0BD18A690123C8
:10335000AB40DB431B041B0C13408B61074B9847AE
:1033600003B0F0BD8A690123AB4013438B61F5E7DD
:1033700061320000695A0000002400404132000020
:1033800010B51E4A936904210B4393611C4B202204
:10339000FF321A831A7D0523D20701D4180010BD0D
:1033A00003781B02C022920013404178C901FF221A
:1033B0000A401343817849001E220A401343C27811
:1033C00092048021C9020A40134302791204C021E9
:1033D00089020A4013430A4A536093685B035B0FF8
:1033E000084908249C400C8093684B8043780B71FB
:1033F000138BDB05DB0F1B01D0E7C0460004004048
:1034000000400041C00A002030B50400254A108861
:10341000538843438B420BD280229201224BCB181C
:10342000934205D9214A1820214BCB1893420ED83C
:10343000204B5D688022D2022A435A602022FF324C
:103440001A831B7DDB0703D41A4B5D60052030BD5A
:10345000452C22D8A300184AD3589F46154B1B8BE6
:10346000DB0503D5134B5D601020F0E789084900A8
:10347000104BD96103E0890849000E4BD961A520A2
:10348000000204430B4B1C80190001220B7D1342E8
:10349000FCD0084B5D600020D9E7064B5D6017202B
:1034A000D5E7C046C00A002000C07FFFFF1F000014
:1034B0000000C0FF00400041FCDC0100F8B52F4BCC
:1034C0001C885B886343834207D22D4E18252D4B01
:1034D000C318B34206D8012600E00026631E182553
:1034E000184201D02800F8BD013D9442FAD3264B82
:1034F0001B7D123DDB07F5D5244C234B1C801D00A2
:1035000001242B7D2342FCD02024FF341E4B1C833E
:10351000002A2CD0012305009D430023541EA446FD
:1035200009E0CF187F783F023C432C8002339BB2E6
:1035300002359A4204D9CC5C6345F2DBA4B2F4E7CD
:103540000E4B1B790025002BCCD13F2ACAD8002E68
:1035500006D10022010004200D4B98470500C1E769
:10356000002201001C200A4B98470500BAE7034BD4
:103570001B790025002BEAD0B4E7C046C00A002022
:10358000FF1F00000000C0FF0040004144A5FFFFF6
:103590000934000070B51B4B1C885B886343834271
:1035A00005D2194E1825194BC318B34203D8631E10
:1035B0001825184201D0280070BD013D9442FAD36D
:1035C000134B1B7D123DDB07F5D52024FF34104B38
:1035D0001C83002A14D0012398430023561E04E0C4
:1035E00002339BB202309A4208D90488A4B2CC5468
:1035F000B342F5DACD18240A6C70F1E70025DAE75A
:103600000025D8E7C00A0020FF1F00000000C0FF0F
:103610000040004110B51B4A138852885A43824229
:1036200007D2194C182219494118A14207D8012183
:1036300000E000219B00013B1822184201D010003D
:1036400010BD134B1B7D133ADB07F8D5104B20221E
:10365000FF321A8380084000D86100290FD10D4A3B
:103660000B4B1A80190001220B7D1342FCD0084B32
:103670001A8B1C200240501E82419200DFE7064A4E
:10368000EEE7C046C00A0020FF1F00000000C0FF98
:103690000040004102A500001AA50000154B2022A1
:1036A000FF321A839B685903490F183AFF3A8A4040
:1036B000027043801B0D83810F4B1B885B065B0FE1
:1036C000072B10D00622D21A0423934043600A4BE2
:1036D0001B8807221340072B08D00722D21A042385
:1036E00093408360704700234360F0E700238360CA
:1036F000F8E7C046004000410040800000B583B0BC
:1037000001AB80221A700A785A704A789A708A78C7
:10371000DA701900014B984703B000BD695A0000E8
:1037200003681869431E9841C0B2704770B5040021
:1037300006680422084B1A60084D2000A84700289C
:10374000FBD13388022213433380044D2000A84765
:103750000028FBD170BDC04600E100E02137000029
:1037600070B504000668042180230A4AD1500A4D2E
:103770002000A8470028FBD1084B3381B381338850
:10378000022293433380044D2000A8470028FBD138
:1037900070BDC04600E100E021370000FF81FFFF5F
:1037A00070B5040006680A4B98470023A386E38699
:1037B000084D2000A8470028FBD13388012213437D
:1037C0003380044D2000A8470028FBD170BDC046BF
:1037D0006137000021370000F8B504000E000768CB
:1037E0000C4D2000A8470028FBD12379002B09D0DD
:1037F0001720012B05D1BE61064D2000A8470028E7
:10380000FBD1F8BD044B17209E42FAD8B6B23E83D6
:10381000F2E7C04621370000FFFF000070B504004A
:103820000668084D2000A8470028FBD12379002B0B
:1038300004D00020012B00D1B06970BD308B80B264
:10384000FBE7C04621370000F0B583B004000191CA
:1038500015000668134F2000B8470028FBD12379D4
:10386000002B0ED0012B19D11730012D17D8083598
:10387000AD00019BAB510B4D2000A8470028FBD1A8
:103880000DE01720022D0AD8074B019A9A4206D85C
:103890006B469B8810356D00AB53ECE71A2003B0E4
:1038A000F0BDC04621370000FFFF000070B50400E6
:1038B000150001601F4A516980235B000B4353616F
:1038C00005221D4B1A611D4B9847AB7823711C4B89
:1038D0001C6022682B79DB0329880B439BB2138081
:1038E000AB78002B13D01720012B0FD113889BB27C
:1038F0001380EB78002B03D0138880210B431380B7
:10390000A968002220000F4B9847002070BD138843
:1039100004210B431380EB781720002BF6D10022F3
:10392000A9682000074EB047E96801222000B0478F
:103930000020EBE70004004000100040A137000029
:1039400088110020493800000A2A09D0072A07D91F
:103950000379002B10D0012B12D11633092A09D874
:10396000931C9B001950838E012191400B439BB205
:10397000838600231800704717230A2AFAD8EFE736
:103980001723F7E710B502680A2911D0072912D9C1
:1039900080235B000C00083CA340C024A40023400B
:1039A0005381C38E01228A4013439BB2C38610BD4C
:1039B000044B5381F5E701248C40FF2323405381BE
:1039C000EFE7C0460080FFFF10B502680A2910D05B
:1039D000072911D980235B000C00083CA340C024B8
:1039E000A40023401381C38E01228A409343C386DF
:1039F00010BD044B1381F6E701248C40FF232340C4
:103A00001381F0E70080FFFFF8B5DE4657464E46CB
:103A10004546E0B52B4B1B689A461E68DB8E524626
:103A2000928E1A409046B289738913401AB2002AC6
:103A300008DBFF271F402AD0002401239946FE33CC
:103A40009B4614E043465B0507D41F4BB3813CBC47
:103A500090469946A246AB46F8BD53461B6B984725
:103A6000F3E75B461D40B5810134082CEFD02300FD
:103A70004D46A5402F42F4D04246224149461142CC
:103A8000EFD002339B0052469B589847E9E7DA058E
:103A90000AD54346DB0503D480235B00B381D6E718
:103AA00053469B6A9847F7E79B05D0D543469B054D
:103AB00003D480239B00B381C9E75346DB6A984750
:103AC000F7E7C046881100200080FFFF0168072249
:103AD000CB691A42FCD17047F0B5D6464F464646F0
:103AE000C0B58AB007000E00140039600800A54B6D
:103AF0009847052800D13DE105001235A24AD16959
:103B0000012383400B43D36109A9237B0B70EDB2E2
:103B100028009E4B984728009D4B9847207B00210A
:103B20009C4B984733681C209B0705D50AB01CBCEA
:103B300090469946A246F0BD33681738DB07F5D4A6
:103B40003868904B9946984705009349934B98479E
:103B5000AD00934BEF5000233B767B7600257B83B3
:103B6000BB832522BD543B62143333603B689846C7
:103B70001800C8478146802308AA13705570012396
:103B80009370D570E069266A002800D1AFE008ABD9
:103B90001870022308AA5370000CC0B21100814BA8
:103BA0009847002E00D1A7E008AB1E70022308AA98
:103BB0005370360CF0B211007A4B9847A38AFB8001
:103BC000E38A3B81237E8022002B04D1764B9B78B5
:103BD0009B07DB0FDA01A16823690B4313432422FF
:103BE000A25C002A02D08022D2051343A26A1343AA
:103BF0002C22A25C002A03D180229204914202D19D
:103C00008022120513432D22A25C002A02D08022BA
:103C1000120413432E22A25C002A02D08022D20377
:103C200013434246126813434246136080235B00ED
:103C300053604D461235E8B25C4B98470790FA2323
:103C40009B0022685A43914663689A46584DA8479C
:103C5000009001914B465800A84702900391208E96
:103C6000A84704900591534F534A544B009801992B
:103C7000B84702000B0004980599B847504E00223F
:103C8000504BB047049005914846A84702000B00EE
:103C900004980599B84702000B004B4D0098019914
:103CA000A847029A039BB0470022484BA847029AB4
:103CB000039B474DA847474B9847050080239B042B
:103CC000A2689A421ED003004020FF2D00D92DE7A4
:103CD00000240020FF251D40240625430004FF2367
:103CE0001B04184005434346DD6000201EE7002109
:103CF0004046394B98474AE701214046364B9847A2
:103D0000060051E7FA26B60053465E430098019933
:103D100002000B002A4CA047009001913000244B78
:103D2000984700222D4BB84702000B0000980199DC
:103D3000274CA0470022254B234CA047254B9847F2
:103D4000041E0CD031000798254B98470238001B01
:103D50002B00FF2D0CD8FF28BCD94020E6E67100CF
:103D6000481E079B9C4660441D4B98470138EFE76F
:103D70004020DBE6044A136A02210B431362182534
:103D8000C2E6C04619470000000400406D5900001B
:103D9000FD580000714500000D420000554700002D
:103DA0008C110020695A0000002000419159000048
:103DB000DD760100496B010095D626E80B2E113EF9
:103DC000C15E010000002440497001000000F03F86
:103DD000E164010075760100BD4500000000084067
:103DE000F54A010003681A7E920707D502221A7667
:103DF0005B8B9B074120DB17184070475A8B52079B
:103E000006D55968C02292020A435A601820F4E786
:103E10000020F2E730B50268002301240225117E5C
:103E200021420BD1117E294206D101339BB2018977
:103E30009942F4D8122002E0002000E0002030BDBA
:103E400010B5046862688023DB021343636061621B
:103E5000024B98470123237610BDC046153E000053
:103E6000F0B5DE4657464E464546E0B583B00600FF
:103E7000894605684C882B681B01DB0F9A464B7AF4
:103E8000002B2BD16B68584A13406B604B461B7A52
:103E9000002B27D14B461B885B004A46527A92037F
:103EA0001343012213436B623000504B984701903B
:103EB0005346002B03D04B465B88012B3BD06B68ED
:103EC000494A13406B60019B002B3AD0019803B024
:103ED0003CBC90469946A246AB46F0BD897A444B1D
:103EE0009847CFE74B461B885B004A46527A9203BD
:103EF00013438022120213436B6230003B4B9847FE
:103F000001906B68384A13406B600028DED13000A6
:103F1000384B984701900028D8D14B461B881B0A84
:103F2000782213435B004A46527A920301210A43E6
:103F300013436B62B8E76A688023DB0213436B604C
:103F4000C1E730002B4B984701900028BED1013CBF
:103F5000A4B28046284B9B4615E0012C20D03000AF
:103F6000264B984743465F1CBFB22823EB5C4A466A
:103F700052684146535430001C4B9847013CA4B250
:103F8000002815D1B8465C4514D06B8B9B0627D50D
:103F9000F37A002BE3D05346002BDED1002CDED188
:103FA0006A688023DB0213436B60013CA4B2EAE73A
:103FB000B8460190B37A002B09D130000F4B9847D7
:103FC0002823EA5C4B465B6841465A547EE7300042
:103FD0000A4B98476A68C0239B0213436B60ECE767
:103FE0004123019372E7C046FFFFFBFF153E00002F
:103FF000413E0000E53D0000FFFF0000CD3A00001B
:10400000F0B5DE4657464E464546E0B583B006005D
:104010000F0005684C88324B98477B7A002B1DD1E6
:104020006B68304A13406B603B7A002B1BD03B8897
:104030005B007A7A920313438022120213436B626D
:104040003000294B98470190002813D0019803B005
:104050003CBC90469946A246AB46F0BDB97A3000CA
:10406000224B9847DCE73B885B007A7A9203134344
:104070006B62E5E730001E4B9847031E0190E5D1C7
:10408000A046002420339946154B9B46164B9A4672
:10409000444515D06B8B4A4613421DD03000D8479B
:1040A0007B681A5D2823EA543000D047002806D1E7
:1040B0006B8B01345B07EBD51E23019300E001906D
:1040C000B37A002BC2D03000054B98476A68C023F2
:1040D0009B0213436B60B9E741230193B6E7C046E7
:1040E000CD3A0000FFFFFBFF153E0000413E0000FF
:1040F000E53D000010B5838B9BB20522002B01D05B
:10410000100010BD01338372C372024B9847020046
:10411000F6E7C046613E000010B5838B9BB20522D6
:10412000002B01D0100010BD83720133C372024B0B
:1041300098470200F6E7C0460140000001680722E8
:10414000CB691A42FCD1704770B50400066832682A
:10415000458B838BED1AADB2838B013B9BB283837E
:1041600013011DD5C37A002B03D0838B9BB2012B87
:1041700010D0A38B9BB2002B02D1A37A002B1CD1B1
:104180002000124B9847236A5D192823F35CDBB2A9
:104190002B7070BD72688023DB0213437360E8E705
:1041A000C37A002BE5D0838B9BB2002BE1D17268E0
:1041B0008023DB0213437360DBE72000034B984747
:1041C0007268C0239B0213437360D9E73D4100002E
:1041D00070B5040005686B8B5B0703D51E22252391
:1041E000C25470BD468B838BF61AB6B2838B013BEB
:1041F0009BB28383044B9847236A9E193378DBB2C2
:104200002822AB54EDE7C0463D41000070B5800068
:10421000754BC45825682B681B01DA0F637E267E18
:104220001E40638B9BB2002B03D1A38B9BB2002B50
:1042300023D1638B9BB2002B08D0A38B9BB2002BA6
:1042400004D12533E35C052B00D16DE0638B9BB279
:10425000002B24D0A38B9BB2002B20D06B8B9B0612
:1042600000D581E0002A04D0A38B9BB2012B00D1A2
:104270007AE041222523E25411E02B7EDB0707D5AB
:1042800001232B766B8B9B072ED541222523E254ED
:10429000A38B9BB263832523E35C052B38D0638B10
:1042A0009BB2002B07D0A38B9BB2002B03D12533ED
:1042B000E35C052B64D02523E35C052B13D0252379
:1042C000E35C002B0FD003232B7500236383A383B0
:1042D0002533E35C412B03D0A37A002B00D075E09B
:1042E000730700D57BE070BD6B8B5B07D0D51822C0
:1042F0002523E2540023A383A37A002BC8D02000F7
:104300003A4B98476A68C0239B0213436B60BFE730
:104310001F33E35C002B03D02000354B9847BEE7EA
:104320002000344B9847BAE71F33E35C002B00D0E2
:104330008CE703332B750023638325330022E2547B
:10434000A37A002B07D101232B76F307A7D5E368C7
:1043500020009847A3E72000244B98476A68C023B1
:104360009B0213436B60F0E72423E35C002B03D133
:104370002000204B984792E720001D4B98478EE77E
:104380001F33E35C012B96D12B7E9B0701D50223C3
:104390002B7603232B750023638325330022E254FD
:1043A000B30703D52423E35C012B0BD0F30700D420
:1043B00081E72423E35C002B00D07CE7E368200046
:1043C000984778E723692000984774E72000074B57
:1043D00098476A68E023DB0213436B6080E76369F8
:1043E000200098477FE7C0468C1100203D41000027
:1043F00049410000D1410000F0B5DE4657464E4627
:104400004546E0B587B08046049116001F000022A3
:10441000002300218B463F240120210000960197B4
:104420005C4603944446059413E02024641A050076
:10443000E540A84614E0009C019D121BAB415C4680
:104440004D462C43A346039C45462C430394013917
:1044500025D3202464420C19E7D40500A540A846C2
:1044600004008C40A14692185B4114001D00059E7B
:104470004F463E40B446049E47463E40B2466646DE
:1044800057463E4303D00600264332002B00009CD3
:10449000019D9D42DBD8CED19442D8D8CBE7039B77
:1044A0005846190007B03CBC90469946A246AB4618
:1044B000F0BD10B5490840230024814202D2180003
:1044C00010BD1C00091A631C9BB28842F9D9402315
:1044D000FF2CF4D814800023F1E70000F0B583B07E
:1044E0000F00160008AA117804004C434022BC4279
:1044F00002D9100003B0F0BD002B14D10200080057
:104500000021194CA04701003A0000230020174C5D
:10451000A04700220123121A8B41120C1B041A43DC
:1045200032800022E5E70022012BF9D10A000023A6
:1045300000210D4CA04702000B00009201933800AF
:1045400000210A4CA047050080239B01402298428D
:10455000CFD8790FF800009A019BA047EA00821A91
:10456000D2B252032A43DBE7954E0100F943000023
:1045700010B582B004000E4B1B78002B07D0002929
:1045800005D10B4B5B78834210D01D200CE001A9B4
:104590000C701120074B98471120074B9847044B8C
:1045A0005C7001221A70002002B010BD0020FBE7F1
:1045B000C80A00206D590000FD5800003C4B98428D
:1045C00032D00AD93B4B98424ED03B4B984255D003
:1045D0003A4B984238D0002070478423DB0598423C
:1045E0000CD0374B9842F6D1012917D0002957D06B
:1045F000022915D0032915D00020EDE7012907D0A5
:1046000000294BD0022905D0032905D00020E3E77B
:104610002C48E1E72C48DFE72C48DDE72C48DBE7B6
:104620002C48D9E72C48D7E7012907D0002939D0F1
:10463000022905D0032905D00020CDE72748CBE784
:104640002748C9E72748C7E7012907D000292BD009
:10465000022905D0032905D00020BDE72248BBE789
:104660002248B9E72248B7E7022903D0032903D03B
:104670000020B1E71F48AFE71F48ADE7012907D089
:10468000002913D0022905D0032905D00020A3E773
:104690001A48A1E71A489FE71A489DE71A489BE77E
:1046A000032099E7194897E7194895E7194893E7D0
:1046B000000800420010004200040043000C0042C9
:1046C0000004004203000500030006000300070089
:1046D0000300010003001E0003001F000300090087
:1046E00003000A0003000B00030011000300120086
:1046F0000300130003000E0003000F000300170067
:104700000300180003001900030004000300080060
:10471000030010000300160030B587B00B4B6A464B
:1047200032CB32C232CB32C2009B83420BD0012348
:104730009A0069465258824206D00133062BF7D1BF
:10474000002007B030BD0023D8B2FAE714DE010024
:1047500070470000F0B50A4B1B78002B0CD1094FB5
:10476000094E0A4D0024DE515A1914600433182BE7
:10477000F9D10122024B1A708000024BC150F0BDEA
:10478000CA0A0020CC0A0020514700008C110020EA
:1047900000B583B008236A461370013353700133A8
:1047A00093700133D3700133137101335371034B91
:1047B00098476B46185603B000BDC0461947000025
:1047C00010B5024B1B680020984710BDCC0A002092
:1047D00010B5024B5B680120984710BDCC0A002041
:1047E00010B5024B9B680220984710BDCC0A0020F0
:1047F00010B5024BDB680320984710BDCC0A00209F
:1048000010B5024B1B690420984710BDCC0A00204C
:1048100010B5024B5B690520984710BDCC0A0020FB
:10482000F0B5D6464F464646C0B58AB006000F00E2
:10483000140031600B689B070AD40B680520DB0766
:1048400000D497E00AB01CBC90469946A246F0BD41
:10485000936A0593D36A0693136B0793536B08937C
:1048600000250AE038009A4B98470EE00F231840C5
:10487000814530D10135042D31D0E9B2AB0002AA17
:104880000C201218D0580028ECD0431CF2D00104A0
:104890000B0C9946000CC3B29C460023020605D4BB
:1048A00063465B09DB018B4A904643441F22604606
:1048B0000240981840300078824680205146C9074F
:1048C000D6D552089B1830331878C0B26346DB0740
:1048D000CCD50009CCE7002333601C20B2E71120BF
:1048E0007D4B984722780025012A26D06368A2686C
:1048F0001343E26813432B43227C617C002901D0DF
:1049000080210B43A17C002902D0802189020A4327
:10491000E17C002902D0802189000A43217D002901
:1049200002D0802189010A433968022003438B4267
:1049300017D0002333601C2084E704AA0100A0697B
:10494000664B984703001720002B00D07AE73B7B8B
:10495000DBB204AA127805309A4200D072E70C3517
:10496000C4E77B689342E4D123787371237CB371ED
:10497000002067E708005A4B9847052800D19FE0C0
:10498000030012335749CD69012282402A43CA618C
:1049900009A92425625D0A70DBB201931800524B0D
:1049A00098470198514B9847605D0021504B9847BC
:1049B0002378012B19D03368984604AB80221A70F3
:1049C00000225A7001219970DA702378002B01D1EE
:1049D00004AB9A70A36A0593E36A0693236B07936B
:1049E000636B0893002705AD11E03B680C2213436D
:1049F0003B60E0E74046364B98470DE004A908705D
:104A0000000CC0B23B4B98470137042F07D0F9B2D6
:104A1000BB0058590028EDD0431CEFD1F4E72378B0
:104A20007371237CB371A37CF371237D33720022F5
:104A300002ABDA802378012B2AD06368A268134383
:104A4000E2681343217C627C002A03D12A4A9278CF
:104A5000920701D580221343A27C002A02D0802233
:104A600092021143E27C002A02D08022920011437C
:104A7000227D002A02D08022920111434246126810
:104A800013434246136053680B4353600020D9E63A
:104A90003068134B98471230C0B20F4B9847010053
:104AA00002AB9A1DA0690D4B984703001720002BFD
:104AB00000D0C7E602AB06331B7842461373BCE74F
:104AC000084A136A02210B431362182360E7C046A9
:104AD000BD4500000028004091590000B34400008B
:104AE00019470000000400406D590000FD58000007
:104AF00071450000695A00000020004110B544795A
:104B00001523012C01D0180010BD047A0023002CBD
:104B1000F9D1002A58D04B78002B44D003681B7E73
:104B2000DB0710D40A78D1090023002904D15309E6
:104B3000DB012E498C4663441F21114001228A402B
:104B40009A610523DFE70A78D4090023002C04D1F9
:104B50005309DB01254CA44663441F241440012261
:104B6000A2405A6103681A7ED20701D58A789A62F8
:104B7000C2790023002AC6D102680421137E0B42A9
:104B8000FCD0117E00234907BDD5538B5B0701D5AF
:104B9000042353838379012B02D0936A0023B2E765
:104BA000936A0023AFE70A78D1090023002904D1D2
:104BB0005309DB010D498C4663441F21114001223A
:104BC0008A405A6100239EE70A78D1090023002910
:104BD00004D15309DB0105498C4663441F21114070
:104BE00001228A409A6100238DE7C04600280040D8
:104BF000F0B5DE4657464E464546E0B591B0050055
:104C00000C00160029600800C64B984702000528D2
:104C10000DD007001237030021680520C90709D508
:104C200011B03CBC90469946A246AB46F0BD182751
:104C30000123F1E7216817308907F1D4052A49D00B
:104C4000B949C86901229A4013000343CB610FA9F7
:104C50002D239846F35C0B70FFB23800B34B984796
:104C60003800B34B98474346F05C0021B14B98475E
:104C7000F37A6B712423F35CAB712523F35CEB7146
:104C8000F37E2B72337F6B722B6898461800A54B0E
:104C90009847052826D0123000220E2306A98C46FC
:104CA00063441A80328A02928023DB019A4200D147
:104CB000ABE019D9C023DB01029A9A4200D19FE0F0
:104CC00080231B029A4200D027E10323069300238E
:104CD000079312E09449086A043A9A401300034388
:104CE0000B62B4E71820D7E780239B019A4200D0DB
:104CF00013E1102306930F3B079333680593F36882
:104D0000039373690493337E9B462623F35C9A4690
:104D100073689946002B00D19FE080235B0599457D
:104D200004D12723F35C002B00D184E0737E002B99
:104D300002D0B37E424693732A68029FD369002B48
:104D4000FCD10E3306AA944663441B8842469381E5
:104D5000059B039A1343049A13434A4613431F4384
:104D60005B461B021F4353465B071F432723F35C2D
:104D7000002B01D104331F43737E9B02327F52020A
:104D80001343727F120213432422B25C5204134372
:104D90002522B25C12041343B17AF27A114319430B
:104DA0003389FF2B7DD080225204174319432C23D3
:104DB000F35C002B03D1604B9B789B0701D58023CC
:104DC0001F432A68D369002BFCD1434659602A68E7
:104DD000D369002BFCD143461F600EAB80221A70B2
:104DE00000225A70DA709A70336B0A93736B0B93CC
:104DF000B36B0C93F36B02930D9300270AAE5EE046
:104E000008230693073B079377E733680593F36816
:104E1000039373690493337E9B462623F35C9A467F
:104E200073689946002B14D080235B05994500D107
:104E300077E7002020E0336A1F00C0B23F4B98475D
:104E400001000E2206AB9C46624438003C4B98475A
:104E500012E008230693002307932723F35C002B1B
:104E60000ED0069B0093079B0E2206A98C46624437
:104E7000B16A306A334FB847002800D0D0E655E712
:104E8000336A1F00C0B22D4B98470100069B009368
:104E9000079B0E2206A8844662443800294FB84773
:104EA000EAE7F37E002B82D08023DB041F437EE7FA
:104EB0002000254B984707E00137042F0DD0F9B2A9
:104EC000BB0098590028F3D0431CF5D00EA90870F8
:104ED000000CC0B21D4B9847EEE70023EB602B613E
:104EE0006B61AB61EB612B62AB626B620022EB85A5
:104EF000AB853033EA540133EA540133EA540133C9
:104F0000EA542868074B984704001149114B984709
:104F1000A400114BE550002082E6102306930023E5
:104F20000793EAE619470000000400406D590000AD
:104F3000FD5800007145000000200041915900001B
:104F4000B3440000DD440000BD450000695A000084
:104F500091500000554700008C110020C2791C239D
:104F6000002A01D118007047C28D92B2173B002A67
:104F7000F8D10368DA69002AFCD1198502211A7E6A
:104F80000A42FCD00023EDE782791C23002A01D1DC
:104F900018007047828D92B2173B002AF8D1026840
:104FA000107E4007F4D5D369002BFCD1538BDBB2C4
:104FB00098061DD0980703D5022353831833E7E7DB
:104FC000580703D5042353831A33E1E7D80703D5E1
:104FD000012353831233DBE7D80603D51023538311
:104FE0003233D5E79B0603D5202353832133CFE704
:104FF000138D0B800023CBE7F0B5D64600B584B007
:10500000040001911720002A03D104B004BC924689
:10501000F0BDA3790530002BF7D02668013A93B292
:105020009A460025042719E0002302AAD380911D87
:105030002000154B98470028E7D1691C89B202ABC4
:10504000DB88019A53556279012A14D00D0053462A
:10505000013B9BB29A460D4B9A45D6D0337E3B42DC
:10506000E2D10A4B327E3A42DED1012B09D0013B1C
:10507000002BF7D1D8E70235ADB21B0A019A535481
:10508000E5E71220C1E7C046894F0000FFFF00009E
:10509000F8B58000624BC5582C68E369002BFCD141
:1050A000237EA67D1E403023EB5C3122AF5C1F4087
:1050B000F30722D5EB8D9BB2002B1CD0AA6A137884
:1050C000DBB2511CA962697901290ED09BB2DB05C4
:1050D000DB0D2385EB8D013B9BB2EB85002B0CD1C7
:1050E000013323750133A37507E0517809020B439F
:1050F0000232AA62EBE701232375B30706D5022328
:10510000237500223133EA54FB071AD4730765D59F
:10511000AB8D9BB2002B5FD0638BDBB21A0714D42C
:105120003F221340002B34D09A0711D51A22322384
:10513000EA54303B63837B0750D528006B6998475E
:105140004CE02800EB689847E0E737221340E9E796
:105150005A0705D51E223223EA542E3B6383EAE721
:10516000DA0705D513223223EA54313B6383E2E7A1
:10517000DA0605D542223223EA54223B6383DAE77A
:1051800020221A42D7D021323223EA54123B6383C1
:10519000D1E7238DDB05DB0DDAB2696A0A706A6A32
:1051A000511C69626979012910D0AB8D013B9BB21A
:1051B000AB85002B12D10433237500222E33EA5421
:1051C000BB070BD528002B69984707E01B0A5370D3
:1051D0006B6A01336B62E8E704232375F30604D599
:1051E000102323752376FB060ED4B30604D52023A3
:1051F000237523763B070BD4330704D50823237587
:105200002376BB0608D4F8BD2800EB699847ECE785
:105210002800AB699847EFE72B6A28009847F2E728
:105220008C11002010B5082803D880001C4B1B5897
:105230009F46002032E01B4B18692FE01A4B187D67
:105240000007800F431C1948584327E0154B586945
:1052500024E0144B1B6800209B071FD512498022B5
:105260005200CB681342FCD00E4B1B685B0701D485
:105270000F4813E000200F4B98470A4B9B681B0414
:105280001B0C58430AE02823074AD35C00209B07E5
:1052900004D5044BD86801E08020000210BDC04650
:1052A0002CDE0100E40A0020000C004000093D0053
:1052B000006CDC029159000070B50B4C237D8578A1
:1052C000467802780321114089000C2293430B4356
:1052D0000B3A3240920140218B431343ED017F2270
:1052E00013402B43237570BD000C0040F0B5D6462B
:1052F0004F464646C0B5204B9A465B6945780178D3
:105300004C424C41A14681788C46C1788846467A09
:10531000077A847A4068194948610121484680002B
:1053200004229343034340460840C00004329343A1
:1053300003436046084000010832934303430F4093
:10534000BF01402083433B430E40F601403083437E
:105350003343793805402D02094803402B4321404F
:105360000903084803400B43524653611CBC904656
:105370009946A246F0BDC04600100040E40A002055
:10538000FFF8FFFFFFEFFFFF10B5837A9B061B0CB2
:1053900082899205920D13431A494B60037A427A2F
:1053A00013438288C488224313434278D2011343B3
:1053B0008278920113430B600378042B11D0202BC9
:1053C0000ED1837B9B06428A1343028A12040E4944
:1053D0000A4013430B4A936011680C4B0B43136054
:1053E00010BD837B9B06428A1343028A120406493E
:1053F0000A401343034A9360136804210B4313606C
:10540000EEE7C046E40A00200000FF032404000089
:10541000082803D88000294B1B589F4617204BE0D3
:10542000274A137D02210B431375002044E0254ACF
:10543000936902210B43936100203DE0204A138AC7
:1054400002210B431382002036E01E4A53690221D9
:105450000B43536100202FE01B490B6802221343CA
:105460000B60174B1A831900FE32CB681342FCD035
:10547000154A9168124B19625268DA6100221A8348
:1054800019000132FF32CB681342FCD00E4B1B686F
:105490009BB20B4A138300200EE0094928228B5C43
:1054A000022003438B5408003821263A435C134200
:1054B000FCD1002000E000207047C04650DE010013
:1054C000000C004000100040E40A0020082832D8F8
:1054D00080001A4B1B589F46194A137D02218B43AB
:1054E000137500207047174A936902218B4393611B
:1054F0000020F7E7124A138A02218B43138200200F
:10550000F0E7104A536902218B4353610020E9E719
:105510000D4B1A6802218A431A601B689BB2084A25
:1055200013830020DEE7064928228B5C0220834398
:105530008B540020D6E71720D4E7C04674DE010064
:10554000000C004000100040E40A0020F0B5CE46F8
:10555000474680B58DB080225200764B9A60FD3A66
:10556000754B9A60754A53681E218B431A390B4359
:1055700053608023DB059B78022B0FD08023DB0553
:105580009B785BB2002B09DB8023DB0501229A713B
:1055900001329A701A009379002BFCD009A80023DD
:1055A000037080221202426083700122C270037273
:1055B0008372033242704372614B98470520614BFE
:1055C000984761490122CB681A42FCD001A9012504
:1055D0004D6000244C700C724C7203230B70002041
:1055E0005A4B984706205A4B98476B465C701D7083
:1055F0009C706846574B98470620524B98474D4938
:105600001022CB681A42FCD001A901234B60002470
:105610004C7005330B700C724C7200204B4B98474A
:1056200004AB00229C80DC801A725A729A703F216F
:1056300099813B3919705A70474B1B689B0E3F2B61
:1056400000D174E004A88372B723DB0043820723F0
:10565000837338330382414B9847414B984701ACE1
:105660000126029600256570657205239946237010
:10567000267221000120354B984698470120394F6A
:10568000B847657006232370257265724B466360C8
:1056900021000220C0470220B847267021000020C8
:1056A000314B98470020314B98470720254B9847AE
:1056B0002049D0221201CB6813409342FBD12C4CDD
:1056C0000123A3716371237101A900234B700B7235
:1056D0004B7207330B70013B4B6000201B4B98470C
:1056E0000020204B98470020224B98472179C9B2CF
:1056F000214B9847214B984214D88023DB059B7897
:10570000002B0FD08023DB059B785BB2002B09DBDD
:105710008023DB0501229A7100229A701A00937986
:10572000002BFCD00DB00CBC90469946F0BD203B40
:1057300088E7C046000C00400014004000400041D3
:10574000ED5200001154000000100040A557000069
:10575000CD540000B9520000206080008953000041
:1057600081570000515800006D590000FD5800009D
:105770000004004091580000F54A0100001BB700EA
:10578000064A536940210B4353610122044B1A70AE
:1057900019000B781342FCD17047C046000400404A
:1057A0000018004070B504000D784B78002B02D033
:1057B0008023DB001D434B7A002B02D080231B018A
:1057C0001D43486801280FD9431E184231D10228D1
:1057D0002DD90223002201325B009842FBD880239E
:1057E0005B011D43120415430B7A002B02D080236A
:1057F0009B011D430426A6401149124A4B681340E1
:105800001E42FBD1104B9847A4000D4B9C466444AC
:10581000226A80235B001A402A4322626146094AB9
:105820004B6813401E42FBD1084B984770BD0022C5
:10583000D5E7000480239B0018430543D4E7C04606
:1058400000180040FC0700000D2A00004D2A00004F
:1058500010B504000422824009480A4943680B40FD
:105860001A42FBD1084B9847A400054B9C46644460
:10587000226A80235B0013432362044B984710BDC8
:1058800000180040FC0700000D2A00004D2A00000F
:10589000F8B50400042282401248134943680B40C3
:1058A0001A42FBD1114B98470E4F0834A400E0591F
:1058B0000007000F0E4B98470600E559ED04ED0F69
:1058C000E459240C0B4B9847002D07D1012C07D924
:1058D00021003000084B9847060001E00134E64003
:1058E0003000F8BD00180040FC0700000D2A000041
:1058F000255200004D2A0000F54A010010B50400B1
:10590000094B9847A000094B9C466044802283586D
:1059100040210B4383504031403A43581A42FCD057
:10592000034B984710BDC0460D2A000000180040E8
:105930004D2A000010B50400094B9847A000094B00
:105940009C4660448022835840218B4383504031E1
:10595000403A43581A42FCD1034B984710BDC04609
:105960000D2A0000001800404D2A000070B5040008
:105970000D00054B98472A780F2313402034A400CC
:10598000024AA35070BDC0463559000000180040BF
:1059900010B50400064B98472034A400054BE4588A
:1059A0002407240F044B98472000044B984710BD50
:1059B0000D2A0000001800404D2A000091580000F8
:1059C00030B5D378002B35D11378802B29D01B0626
:1059D00080246402234354780225AC4306D1947892
:1059E000002C20D18024A402234341605478013C40
:1059F000012C1CD90D042D0CA024E4052C431C43C0
:105A000084620D0CD02424062C431C438462D47879
:105A1000002C22D15B031CD59378012B1ED0416151
:105A200017E00023D7E7C024E4022343DDE70D4C51
:105A30002340DFE741600C04240CA023DB05234353
:105A400083620C0CD0231B0623438362D378002B84
:105A500003D15378013B012B02D930BD8161F8E7B6
:105A60008160FAE7FFFFFBFF10B50A00C1090023C0
:105A7000002904D14309DB0105498C4663441F24F6
:105A80002040012181401800024B984710BDC046BC
:105A900000280040C15900007047000010B5054BB8
:105AA0009847054B9847054B9847054B9847054B3A
:105AB000984710BD4D5500007D2A0000995A0000FE
:105AC00081320000995A0000931C9B001950022A51
:105AD00009D0032A0CD0012393401A00037E1343FC
